:020000040000FA
:08000000000080310628000118
:040008008531082D09
:04000C002100161D9C
:10001000133223001513003091000530920015149F
:100020000000000013086D3C031D1C281408343C1C
:06003000031D1C2817321D
:0800380064008B01ED012100C1
:1000400017309700FC3099001A1FFE3327009030BC
:100050009B0020005820352264006920031D2C28B5
:100060003C22FA332300043091000530920015142D
:10007000000000001308FF3C031D422814083F3C09
:1000800003191C282100970120008531042D23002D
:100090001430E800E900EA0064006920E80B4C280D
:1000A0003D008E012300E90B4C28EA0B4C2801008F
:1000B0003D00920197018E0114309100A9208E1508
:1000C0008E1DFD338E1AFE33900120000230C400D5
:1000D00008003D008E1D0C321019B0208E18083219
:1000E0001018B520101AC220901AC5209019D420DB
:1000F00020004408063C0319063444080800280878
:10010000803908002C08803908004E08D6002908DC
:10011000D7005030D9002030DA005008DB005108F9
:10012000DC004F08D800C6211C220800D21F08009E
:100130005208D6005308D8005408D9005508DA00F0
:10014000A030DB002030DC004030D700E6212A223E
:1001500008002000A001A401A801AC013D00080096
:100160008E10101D08001011FC33163098009901F4
:1001700096018E102000F821C001033044083D0094
:10018000101008008E1410120800181C0A322000EB
:10019000A01F0732A41F0532241D0332F8213D00A1
:1001A00018103D00901208000F0890112000C300A5
:1001B00038304305031D080043192F3220083C390D
:1001C000343C031D0A29C501A413CA01CB01C60191
:1001D000C70125218D213D000E122000CA1B0332CC
:1001E000F82118220800B01F0F320130C50037086F
:1001F000031D00294B083602031800293608CB00DE
:10020000CE210C22032208000230C500F821C101D2
:100210000C220800F821C501080004304402031D27
:10022000083232083D0096002000053003190330E3
:10023000C40001304502031D0532CA1F0800CE214B
:100240000D220800C613C5010800300860390319E3
:100250002A2908003108890389038903890389034E
:1002600003193D29890303194029890389030319C7
:100270007929890303197D2908000430C4006F32ED
:10028000B01F0800330303194C29890303195329AC
:10029000890303195A290800D530CC008330CD00DA
:1002A0001230CB005932E730CC008330CD002930FA
:1002B000CB005232320803196429890303196B29D0
:1002C00089030319722908001030CC008430CD0056
:1002D0000430CB0041321430CC008430CD003430B7
:1002E000CB003A324830CC008430CD002630CB00F1
:1002F00033324008B800CB0A2C323208C000031950
:100300008A291E303D00990020001B22272206303A
:10031000C40025320530C400223230081F39013CA8
:1003200003199329080000303402031D0800063029
:100330003102031DA8292130330289030319A129A1
:1003400007326E30CC008430CD001D30CB0004323B
:1003500008008330CA0008008030CA000800CA17AD
:100360000800590884005A0885005B0886005C086C
:10037000870012001E00D70BFC330408D9000508C3
:10038000DA000608DB000708DC000800580803193B
:1003900008005702031D0800B12108004A08D600D2
:1003A0004B08D8004C08D9004D08DA003830DB0083
:1003B0000030DC000830D700E6215608CA00580893
:1003C000CB005908CC005A08CD0008005808570245
:1003D000031C04325808D700031908325708C1001B
:1003E000D80256190132B121D8080319D6130800D2
:1003F0008430C2003030A2000030A3000830A100D9
:100400004208A00008008030C200F4332013883076
:10041000201FC830C200EE3324133830A60000304D
:10042000A7004108A5008830241FC830A400080098
:100430008430A400080028175030AA002030AB00F8
:100440004030A9008830281FC830A800080040307C
:10045000AC000800A030AE002030AF004108AD0075
:0A04600088302C1FC830AC000800E3
:06046A000130E100230057
:10047000E6002000E0010800E008031D572A7F2065
:10048000031D782A9030D0002130D1004030CF00B9
:100490008030CE008520E00A4030E2004030840009
:1004A0002130850000301A00E20BFC3308002500E3
:1004B00020082000890389030319C72A8903031927
:1004C000DB2A89030319E02A89030319F62A890321
:1004D00003195C2B89030319652B89030319B42BBA
:1004E000890303197B2A8903890389030319AD2A28
:1004F0002000E001080023001513003091000530B2
:100500009200F0308600203087002030E70015147C
:100510000000000013081E0014081E00910A0319B1
:10052000920AE70BF4336D30A0003430A1000030A4
:10053000910005309200C223F03084002030850005
:100540002030E7001200930012009400C823910AA3
:10055000E70BF8339103C623782A8220031D562A1D
:10056000AA30D9008430DA004030DB002130DC00D2
:100570001D30D700B12124000230840005308500F1
:100580001200A3001200A4002000B523782A8220C4
:10059000031D562A8B30D9008430DA004030DB004E
:1005A0002130DC001F30D700B1212400A530D90054
:1005B0002000B523782A250021022000E100782AB6
:1005C00023000030E2000530E30062089100630878
:1005D0009200C2232030E2070318E30A20306302AE
:1005E000031CF33391019201C023782A25002508CA
:1005F0002300E700963084002130850067083A3CEC
:100600008407E736250021082300E20025002208A0
:100610002300E300250023082300890CE30CE20CEF
:100620006208910063087F3C0318153207306202AC
:10063000031D1E2B2000E108031D782A23009201D0
:10064000151723001200930012009400C423910A8E
:10065000E70BF733782AE608031D372B640862029C
:10066000031D782A65086302031D782A0C32E6010F
:100670001200930012009400C823E20A0319E30A4F
:1006800062089100E70367080319572B62081F39B6
:10069000031DEE33620391006308E208031963034C
:1006A0009200C62362089100E708031D382B6208F8
:1006B000E4006308E500782A23000130E600E70142
:1006C0006408E2006508E3004A2B8220031D562AD5
:1006D00007302400A000250021082400A1002300E9
:1006E000E200250022082400A2002300E3002500E8
:1006F00023082400A3002300890CE30CE20C25004E
:1007000025082400A5002000E200463086002130A4
:10071000870062083A3C8607E236230062089100AF
:100720006308920015137F3C0318023292011517DB
:1007300023001514000000001308E0001E00140838
:10074000E100600A031DAA2B3F306102031DAA2BA2
:10075000FF30E10061081E00910A0319920A20008F
:10076000E20BE633B523782A472820004030D40036
:100770002130D5004030D3008130D20096200800CF
:100780005830073218300532483003320830013211
:10079000283095006400151555309600AA30960053
:0A07A0009514000000001511080078
:0607AA0012000100000036
:1007B00002000000000000000800D80004003C0017
:1007C000000002000000010002000000010009001A
:1007D000020029000000010001000000800032003A
:1007E00009000400000000000200030000000000F7
:1007F000000009002100110001000000010022009A
:100800001D000000070005008100030040000000FB
:100810000100070005000100030040000000010086
:100820000400030009000400340003004D00000030
:100830006900000063000000720000006F0000000B
:100840006300000068000000690000007000000004
:10085000200000005400000065000000630000005C
:10086000680000006E0000006F0000006C000000D7
:100870006F00000067000000790000002000000009
:10088000490000006E000000630000002E00000020
:10089000260003004800000049000000440000005A
:1008A000200000005500000053000000420000003E
:1008B00020000000420000006F0000006F000000F8
:1008C000740000006C0000006F0000006100000078
:1008D00064000000650000007200000006000000D7
:1008E000FF0009000100A10001001900010029001A
:1008F0004000150000002600FF0000007500080001
:10090000950040008100000019000100290040000E
:0609100091000000C00090
:0A09160002003A0001000100000099
:100920000A00000000000000360000000000030084
:100930000E000000010000000400000000000000A4
:10094000040000000000010000000600000000009C
:100950000000FF000C000200010000000000000089
:100960000A00000000006D0034004000000000009C
:100970000000FF00FF00FF00FF00FF00FF00FF007E
:0E098000FF00FF00FF00FF00FF00FF00FF0070
:020A00006D3453
:040A02000034003488
:020000040001F9
:02000E008C0F55
:02001000CF1F00
:00000001FF
